:100000000C9404040C944B040C944B040C944B047B
:100010000C944B040C944B040C944B040C944B0424
:100020000C944B040C944B040C947C220C945023A1
:100030000C94B31D0C944B040C944B040C944B0483
:100040000C944B040C944B040C944B040C944B04F4
:100050000C944B040C940A1E0C944B040C944B040B
:100060000C944B040C944B040C944B040C944B04D4
:100070000C944B040C944B040C944B040C944B04C4
:100080000C944B040C944B040C944B040C944B04B4
:100090000C944B040C944B040C944B040C944B04A4
:1000A0000C944B040C944B040C944B04808182837D
:1000B0008485868788898A8B8C8D8E8F9091929388
:1000C00094A0A1A2A3A4A5A6A7A8A9AAABACADAED3
:1000D000AFB0B1B2B3B4C0C1C2C3C4C5C6C7C8C94A
:1000E000CACBCCCDCECFD0D1D2D3D4004C617965A0
:1000F000723A20556E646566696E6564004C61797C
:1001000065723A2033004C617965723A2032004CB6
:10011000617965723A2031004C617965723A204408
:10012000656661756C74001E001F002000210022AE
:1001300000230024002500260027001E001F0020A9
:100140000021002200230024002500260027001E95
:10015000001F00200021002200230024002500268B
:100160000027001E001F0020002100220023002481
:100170000025002600270000AE00AF00DA0281FF54
:10018000D9F1DB20A4A62EAF00A0C000A1C800AE0C
:10019000D580A81FD300408D14200000000000006F
:1001A000003E5B4F5B3E003E6B4F6B3E001C3E7C57
:1001B0003E1C00183C7E3C18001C577D571C001C40
:1001C0005E7F5E1C0000183C180000FFE7C3E7FFDD
:1001D00000001824180000FFE7DBE7FF0030483A72
:1001E000060E00262979292600407F0505070040D4
:1001F0007F05253F005A3CE73C5A007F3E1C1C0807
:1002000000081C1C3E7F0014227F2214005F5F0048
:100210005F5F0006097F017F00006689956A0060C4
:10022000606060600094A2FFA2940008047E04084D
:100230000010207E20100008082A1C0800081C2A34
:100240000808001E10101010000C1E0C1E0C0030B0
:10025000383E383000060E3E0E060000000000005A
:100260000000005F000000000700070000147F147A
:100270007F1400242A7F2A120023130864620036A8
:100280004956205000000807030000001C224100CE
:10029000000041221C00002A1C7F1C2A0008083E86
:1002A00008080000807030000008080808080000F6
:1002B00000606000002010080402003E5149453EE5
:1002C0000000427F400000724949494600214149EF
:1002D0004D33001814127F10002745454539003C66
:1002E0004A49493100412111090700364949493637
:1002F00000464949291E0000001400000000403457
:10030000000000000814224100141414141400000A
:1003100041221408000201590906003E415D594E70
:10032000007C1211127C007F49494936003E414150
:100330004122007F4141413E007F49494941007FC0
:1003400009090901003E41415173007F0808087FF7
:100350000000417F4100002040413F01007F081420
:100360002241007F40404040007F021C027F007F0E
:100370000408107F003E4141413E007F0909090603
:10038000003E4151215E007F091929460026494956
:1003900049320003017F0103003F4040403F001FFE
:1003A0002040201F003F4038403F00631408146382
:1003B000000304780403006159494D4300007F4164
:1003C000414100020408102000004141417F000427
:1003D00002010204004040404040000003070800C2
:1003E000002054547840007F284444380038444466
:1003F000442800384444287F0038545454180000DE
:10040000087E0902001824241C78007F0804047860
:100410000000447D4000002040403D00007F102847
:1004200044000000417F4000007C04780478007C98
:1004300008040478003844444438007C1824241804
:1004400000182424187C007C080404080048545434
:1004500054240004043F4424003C4040207C001C01
:100460002040201C003C4030403C004428102844E0
:10047000004C9090907C004464544C44000008363A
:100480004100000000770000000041360800000233
:1004900001020402003C2623263C0000000000006C
:1004A000000000000000000000000000000080804C
:1004B00080808080000000000000FCFCFCFC00004C
:1004C000000000000080808080808000000000002C
:1004D000808080800000000080808080000000001C
:1004E0000080808080000000000080C0F0F8F8F8F4
:1004F000F8F8000000000000000080E0F8F8F8F8CC
:10050000F8000000000000000000000000000000F3
:10051000000000000000000000E0F0F0F0E0ECEE71
:10052000F7F37020007C7C7C7E007E7E7E7F7F7F68
:10053000000080C0E07E5B4F5BFEC00000C000DCBE
:10054000D7DEDEDED7DC00C00000000000000000C7
:10055000000000000000000000000000000000009B
:1005600000000000000000000000F8FCFEFF1F0774
:100570000707071F1F1F1E180000FFFFFFFF0000D7
:1005800000009EDFDFCFC7E7E7E7FFFFFFFE0000C9
:10059000033FFFFFFEC000F0FFFF1FFFFFF000C0A2
:1005A000FCFFFF3F0300C0F0F8FE9F878380FFFF42
:1005B000FFFF80800000E0F8FCBF8F8381FFFFFF1A
:1005C000FF808080000000000000000000000000AC
:1005D0000000000000000000000F1F3F7F7F7F7FB2
:1005E0007F3F1E0C001F1F1F3F003F3F3F7F7F7F4D
:1005F00000307B7F7830202030787F3B0003000F75
:100600007F0F0F0F7F0F00030000000000000000AD
:1006100000000000000000000000000000000000DA
:1006200000000000000000000000071F3F7F7C78F2
:100630007070787E3E3E0E0600007F7F7F7F000058
:10064000001F3F7F7F79717030383F7F7F7F600070
:100650000000011F7F7F7E7F1F0100013F7F7E7FA3
:100660007F0F0100000003030303030303037F7FE5
:100670007F7F03030000030303030303037F7F7FE4
:100680007F070303000000000000000000000000DE
:10069000000000000000000000000000000000005A
:1006A000000000000000000000000000000000004A
:1006B000000000000000000000000000000000003A
:1006C000000000000000000000000000000000002A
:1006D0000000000000000000000000100373006133
:1006E000006E00640062006F00780000000C037967
:1006F00000660075006B0075000000040309040922
:10070000023B00020100A0FA0904000001030101FC
:1007100000092111010001224000070581030800A2
:100720000A09040100010300000009211101000170
:10073000227B000705820320000A1201100100003D
:1007400000084659090001000102000105010902E3
:10075000A10185020901A100050919012908150057
:1007600025019508750181020501093009311581BE
:10077000257F95027508810609381581257F950129
:1007800075088106050C0A38021581257F950175CB
:10079000088106C0C005010980A101850319012A4D
:1007A000B700150126B700950175108100C0050C32
:1007B0000901A101850419012AA002150126A00240
:1007C000950175108100C005010906A101050719F1
:1007D000E029E7150025019508750181029501754D
:1007E0000881010507190029FF150026FF0095065D
:1007F0007508810005081901290595057501910203
:10080000950175039101C00011241FBECFEFDAE0FE
:10081000DEBFCDBF04B603FE27C08091DE049091F9
:10082000DF04A091E004B091E1048730904BA74031
:10083000B04BD1F41092DE041092DF041092E00469
:100840001092E10414BE84B7877F84BF0FB6F8947A
:10085000A89580916000886180936000109260008C
:100860000FBEE0E0F8E3099511E0A0E0B1E0E0E2BE
:10087000F1E502C005900D92AA3DB107D9F724E039
:10088000AAEDB1E001C01D92AE3DB207E1F70E94B2
:10089000B81F0C946A280C9400006091A00270911B
:1008A000A1028091A2029091A3020E94940581303E
:1008B00079F0882341F0823079F0833089F060E06C
:1008C0008CEE90E003C060E088E191E00C943D0D77
:1008D00060E08FE091E0FACF60E086E091E0F6CF53
:1008E00060E08DEF90E0F2CF60E08CEA90E00C9455
:1008F0002B0DCF93C0E28C33910520F4FC01E35D16
:10090000FE4FC0811F92CF939F938F93FB018081F5
:100910001F928F9381811F928F938CE191E09F931F
:100920008F931F9288E18F9383EF91E09F938F9332
:100930000E9452258DB79EB70E960FB6F8949EBFB3
:100940000FBE8DBF8091DC019091DD01449761F471
:100950001092DD011092DC01EEEDF1E080E2819376
:1009600091E0E23FF907D9F78091DC019091DD0138
:10097000FC01E252FE4FC08301969093DD0180930B
:10098000DC01CF9108950E941A12882361F00E9421
:100990004D0460E083EF91E00E94260D60E08EED53
:1009A00091E00C94260D0C947404FB01228121111A
:1009B0000E94790481E0089582E0089581E008951D
:1009C0000C94D50408950C94E2041F93CF93DF9305
:1009D00000D000D00F92CDB7DEB749835A836B8326
:1009E00030915D0289819A8131111DC06623B9F071
:1009F0002223A9F00E94F31A182F682F89819A8167
:100A00000E949C1A69817A81812F0F900F900F901C
:100A10000F900F90DF91CF911F910C94F0050E94E1
:100A2000CA1A182FEFCF0E94F31A69817A81EDCF8D
:100A3000FC01262F408151816281738184810C9455
:100A4000E504CF93DF93EC0160E00E941805BE013E
:100A5000DF91CF910C94E3040E94F0070C941508E9
:100A60000C94180808950E947E160E9432052FEFFC
:100A700084E39CE0215080409040E1F700C00000FA
:100A80000C942E1E0F931F93CF93DF938C0161E084
:100A90000E941805EC01B8010E94E0048823A9F126
:100AA000B801CE010E94110F882379F1B801CE015F
:100AB0000E94630F882349F1B801CE010E9486107D
:100AC000882319F1F8018281882361F0CB35FDE597
:100AD000DF0721F170F4C115ECE5DE07A1F0CF3D91
:100AE000DC45C9F0C801DF91CF911F910F910C94A3
:100AF000DE04CC358DE5D807A1F0CD35DD4591F785
:100B00000E949A1BEFCF0E94330580E0DF91CF91C6
:100B10001F910F9108950E94061DF7CF0E94A31BFD
:100B2000E1CF0E94A61BDECFCF92DF92EF92FF9221
:100B30006C01EE24FF2420E0C114D104E104F1048F
:100B400019F0C701B60120E1C72ED82EE92EFF24E7
:100B5000C114D104E104F10419F0285FC701B60102
:100B60006B017C0154E0F694E794D794C7945A95AE
:100B7000D1F7C114D104E104F10419F02C5FC701CD
:100B8000B6016B017C0142E0F694E794D794C794D8
:100B90004A95D1F7C114D104E104F10419F02E5F94
:100BA000C701B6019695879577956795672B682B52
:100BB000692B09F02F5F822FFF90EF90DF90CF908D
:100BC000089508950C94E10581E008950C94E405DE
:100BD000CF93C82F0E94E2058C2FCF910C94E6058D
:100BE000972F70E025E0929F600D711D1124FB018D
:100BF0009AE0899FE00DF11D1124EE0FFF1FE95DC2
:100C0000FE4F859194910895CF93DF930E94F00554
:100C10000E94FE06EC01811521E5920708F042C012
:100C2000811530E5930708F09DC0883E910530F5A9
:100C3000803E910508F092C0883A910588F4853A83
:100C4000910508F084C08130910509F487C00097B0
:100C500009F484C0049708F081C0D0E0C0E07EC0F1
:100C60008F3B9105D0F7C85AD0E0CC0FDD1FC75994
:100C7000DE4F0990D881C02DD46470C08115904298
:100C800050F4C11581E0D80708F068C0CD3ED10509
:100C900020F3D06563C0C11590E4D907F0F2DF708E
:100CA000D06A5CC0811525E5920700F5811534E511
:100CB000930708F08BC0811543E5940708F073C0D3
:100CC000C11582E5D80708F469C0CE018370992761
:100CD00021E030E002C0220F331F8A95E2F7C6956B
:100CE000C69580E2C89FE001112454C0C11599E562
:100CF000D907A8F4C11528E5D20708F06CC0C115C2
:100D000036E5D30708F0A9CF8C2F0E949507C82F8E
:100D1000D0E0DC2FCC27CC27DF71D0621FC0C115FB
:100D20004AE5D40708F45CC0CE0190568115904284
:100D300008F093CF8D2F8F710E94950790E0982F28
:100D4000882788279F719C012C2BE901E6CFC55A83
:100D5000D0E0C956DE4FC881D0E0D064CE01DF912B
:100D6000CF910895E4E096958795EA95E1F7837031
:100D70002C2F26952695237040E2249F9001112464
:100D8000382B8C2F8370C1E0D0E002C0CC0FDD1F68
:100D90008A95E2F7C22BD32BDC68E0CFDC2FCC277F
:100DA000C16FD06ADBCF8370992721E030E002C0A9
:100DB000220F331F8A95E2F7C695C69590E2C99F28
:100DC000E0011124C22BD32BDA68C8CFD82FCC274F
:100DD000C46FD06AC3CFDC2FCC27C06FD06ABECF20
:100DE0008C2F8F700E94950734E0D695C7953A9561
:100DF000E1F7CF709C2FEC01D069B0CF823891051C
:100E0000B1F1B0F48133910509F475C048F4893229
:100E1000910509F469C08A32910509F473C00895F7
:100E20008533910509F459C08933910501F108957D
:100E3000833E9105A9F138F4803E9105F9F0823E98
:100E4000910549F10895863E9105A9F1873E9105E6
:100E5000C9F1843E910519F52091C20221FF1FC0FE
:100E60008091C10284FD14C087EE90E00895209126
:100E7000C1022370A1F080EE90E008952091C1029C
:100E800020FD47C03091C20230FF09C024FF44C09A
:100E900090E080E004C02091C10222FDF7CF0895C8
:100EA0002091C10222FD3BC03091C20230FDE3CF50
:100EB00024FFF5CFEDCF2091C10223FFF0CF24FD19
:100EC000E7CFD2CF2091C10223FD2CC03091C202C6
:100ED00031FFEECF84EE90E008952091C10225FF0E
:100EE000DECF89E290E008952091C10225FFD7CF9F
:100EF00085E390E008952091C10226FFD0CF8AE2D9
:100F000090E008952091C10226FFC9CF81E390E0CF
:100F1000089589E390E0089583EE90E0089582EECD
:100F200090E0089586EE90E008959091C10292FFBE
:100F300006C0282F28712830F9F4877F846093FF3A
:100F400006C0282F28712831F1F4877E8461209112
:100F5000C20220FF06C0382F38713830D9F4877F9D
:100F6000816021FF06C0282F28712831D1F4877EA7
:100F7000816194FD877E0895282F24712430F9F62D
:100F80008B7F8860DCCF282F2471243101F78B7E82
:100F90008861DDCF382F3171313019F78E7F88604D
:100FA000E0CF282F2171213121F78E7E8861E1CF9A
:100FB0000C945B1C0E9463088FE39CE90197F1F796
:100FC00000C000000E94630880E00E941A0880FFB1
:100FD00004C00E94D8070C942E1E08950C94DA07C2
:100FE0000E94611C811102C00E94061D0E946C1C9F
:100FF0008093B5020E94741C9093C2028093C10238
:101000000E94EE070E94701C682F70E090E080E064
:101010000E949E196091A0027091A1028091A2028B
:101020009091A3020C94D81908950C941408089573
:101030000C941708E82FF0E0EB53FD4F80810895E2
:10104000089580EA8A95F1F7089500C008950C94F8
:101050002108F894E82FE295EF70F0E031A1282FF5
:101060002F7081E090E001C0880F2A95EAF7982F51
:101070009095932391A392A1892B82A378940895AC
:1010800085E30E94290884E30E94290887EF0E94D3
:10109000290881E30E94290883E30E94290882E34A
:1010A0000E94290886E30E942908A3ECB2E01C9262
:1010B000E5ECF2E0108211961C92118282E00E940F
:1010C000DA080C942C05CF92DF92EF92FF920F93E7
:1010D0001F93CF93DF93CFE9D1E003EC12E0D12C43
:1010E000EE24E394F12C8991F894E82FE295EF70C7
:1010F000F0E021A18F70A70102C0440F551F8A950F
:10110000E2F7CA01922F982B91A392A1809589238F
:1011100082A378940E942508EAE9F1E030E020E01B
:10112000C12C4191A42FA295AF70B0E090968C9104
:1011300090E04F7002C0959587954A95E2F780FD43
:1011400035C08E2D022E01C0880F0A94EAF7C82AF6
:101150002F5F3F4F2530310521F7FE013197808108
:101160000E9429080E942708F8018081C81601F111
:10117000C08281E0D82A0F5F1F4FF1E0C13ADF073C
:1011800009F0B1CF2D2D42E065EC72E083EC92E0E6
:101190000E94DB080E9430058D2DDF91CF911F91B9
:1011A0000F91FF90EF90DF90CF90089580E0CFCF28
:1011B00080E0E0CF0895FF920F931F93CF93DF93CA
:1011C000F82E092F162FD72FC42F222349F081E0A4
:1011D00080930D020E94E31D90930C0280930B02FA
:1011E00080910D028823A1F080910B0290910C0256
:1011F0000E94FB1D069760F0EF2DF02FA12FBD2F51
:10120000CE0FDF2FD11DEC17FD0741F410920D0218
:10121000DF91CF911F910F91FF90089581918D9350
:10122000F2CF8091140280FF12C06091050185E029
:10123000689FB0011124759567957595679560381D
:101240007105A8F561157105A1F1862F089581FF3B
:1012500009C06091050185E0689FB0011124759572
:101260006795EDCF6091050182FD0AC08091130260
:101270008823D1F09091040160910501891728F02D
:1012800085E0689FB0011124DACF869FB001112458
:1012900085E0869F9001879F300D1124692F70E0B3
:1012A000C9010E942225CBCF65E070E0CECF8FE749
:1012B000089581E008958091140280FF0CC0609130
:1012C000010170E0759567957595679561157105D4
:1012D00049F1862F089581FF06C06091010170E0F9
:1012E00075956795F3CF6091010182FD0BC09091D8
:1012F00012029923A1F060910001809101019617DB
:1013000038F0682F70E06038710500F38FE70895BA
:10131000899FC001112470E00E942225F4CF61E072
:1013200070E0D7CF81E008958D3E31F40E9411091D
:1013300081958093180208958E3E19F40E94110938
:10134000F8CF8F3E31F40E941109819580931702E6
:101350000895803F19F40E941109F8CF893F29F4BC
:101360000E945B098093190208958A3F21F40E942C
:101370005B098195F7CF8B3F31F40E945B09819522
:1013800080931A0208958C3F19F40E945B09F8CFEC
:101390009FE0980F983070F4815F990B21E030E066
:1013A00001C0220F8A95EAF780911602822B809362
:1013B000160208958D3F31F480911402816080936C
:1013C000140208958E3F21F4809114028260F7CFB9
:1013D0008F3FB9F7809114028460F1CF40911702DA
:1013E0008D3E59F48091180287FF0DC010921802AB
:1013F00041110BC01092130208C08E3E81F48091FF
:10140000180218169CF3442381F0809119029091E0
:101410001A02892B09F05AC01092120208958F3EC9
:1014200049F447FFF0CF1092170280911802811102
:10143000ECCFE0CF803F19F41416ACF3E4CF9091D9
:101440001902893F29F41916F4F610921902DBCF1C
:101450008A3F19F497FFD7CFF8CF90911A028B3FAC
:1014600029F497FFD0CF10921A02CDCF8C3F19F4F8
:101470001916CCF3C8CF9FE0980F983090F4815F95
:10148000990B21E030E0B90102C0660F771F8A9501
:10149000E2F7CB0180959091160289238093160282
:1014A000B2CF8D3F31F4809114028E7F809314026D
:1014B000AACF8E3F21F4809114028D7FF7CF8F3F0A
:1014C00009F0A1CF809114028B7FF0CF08950E9484
:1014D000E31D9C019091170280911802982B21F036
:1014E00030931102209310029091190280911A02F8
:1014F000982B21F030930F0220930E0285E192E0A9
:101500000C94B511EF92FF920F931F93CF93DF933B
:1015100000D000D000D0CDB7DEB786E0E5E1F2E044
:10152000DE01119601900D928A95E1F7E090170285
:10153000F09018020091190210911A0210921702ED
:10154000109218021092190210921A028E2D8F29F1
:1015500091F080911002909111020E94FB1DAC014C
:1015600090911302992309F43FC0809106018417DA
:10157000150608F447C0802F812B91F080910E0250
:1015800090910F020E94FB1DAC01909112029923D1
:1015900009F477C0809102018417150608F47FC012
:1015A0008091170290911802892B90911902892B32
:1015B00090911A02892B11F00E94670A86E0FE01C1
:1015C0003196A5E1B2E001900D928A95E1F7269659
:1015D0000FB6F894DEBF0FBECDBFDF91CF911F9144
:1015E0000F91FF90EF900895209107018AE0289FC6
:1015F000900111242417350708F0BDCF9F5F909309
:10160000130202C09F3FD1F7EE2059F00E9411094A
:101610009FEF1E140CF491E0899F802D112480937C
:101620001702FF2059F00E9411099FEF1F140CF4BC
:1016300091E0899F802D1124809318023091170228
:10164000332309F498CF20911802222309F493CF71
:1016500045EB3403C0011124992359F090931702EC
:1016600045EB240390011124332339F03093180201
:1016700082CF81E080931702F3CF81E0809318023C
:101680007ACF209103018AE0289F9001112424172A
:10169000350708F085CF9F5F9093120202C09F3FED
:1016A000D1F7002359F00E945B099FEF10160CF44C
:1016B00091E0899F802D112480931902112359F004
:1016C0000E945B099FEF11160CF491E0899F802D19
:1016D000112480931A0230911902332309F460CF48
:1016E00020911A02222309F45BCF45EB3403C00199
:1016F0001124992359F09093190245EB240390018A
:101700001124332339F030931A024ACF81E08093B9
:101710001902F3CF81E080931A0242CF86E0E5E11F
:10172000F2E0DF011D928A95E9F710921302109200
:101730001202109214020895CF92DF92EF92FF925C
:101740000F931F93CF93DF936C017B0164E670E0EE
:1017500088E70E94B610EC0197FD12C010E000E08F
:10176000F601E00FF11F849164E670E00E9412110F
:10177000EC01892B29F40F5F1F4F0E151F0581F710
:101780000E949511CE01DF91CF911F910F91FF9093
:10179000EF90DF90CF900895E7ECF2E080E092E0E8
:1017A000DF019C011D9221503040E1F7F093CC0401
:1017B000E093CB048FEF9FEF909347028093460214
:1017C00008950E94DC048093420280FD0FC080E8EF
:1017D000809341020E94B0106DE070E08EE891E0CD
:1017E0000E949C0B892B21F080E0089580E2F0CFCD
:1017F0008091420263E070E081FD26C08BE891E0B9
:101800000E949C0B892B81F76DE070E08BE791E0E3
:101810000E949C0B892B41F70E94EF1D605A754175
:101820008F4F9F4F6093C7047093C8048093C9047F
:101830009093CA040E94CC0B81E080934502809370
:10184000440210924302089588E891E0D9CF209194
:10185000410236E0839FC0011124629F800D911DDB
:101860001124811522E0920714F090E080E0895362
:101870009D4F9093CC048093CB0408952091CB048A
:101880003091CC04215C324040914102642F70E0E1
:10189000C9010E940E25481B463010F4240F311D4B
:1018A000211582E0380710F030E020E029533D4F49
:1018B0003093CC042093CB0408951F93CF93DF93F0
:1018C000162F8A3031F481E0DF91CF911F910C9473
:1018D000D70C8D3011F480E0F7CFC091CB04D091BC
:1018E000CC0496E0FE01ABE1B2E001900D929A9536
:1018F000E1F7803EC8F086E0FE0111928A95E9F793
:1019000011111EC0C091CB04D091CC0446E050E030
:10191000BE018BE192E00E944525892BF9F4DF910D
:10192000CF911F910C943E0CF6E08F9FB0011124D3
:1019300065567E4F46E050E0CE010E943C25E0CF48
:10194000E091CB04F091CC049F012A5F3F4F2E170A
:101950003F07C1F2808180958193F9CFC75CD24067
:10196000CE0125E0969587952A95E1F721E030E0B4
:10197000A90102C0440F551F8A95E2F7CA014091A0
:10198000460250914702842B952B259645E0D6952B
:10199000C7954A95E1F702C0220F331FCA95E2F7B7
:1019A000822B932B9093470280934602B8CFCF931C
:1019B000382FE091CB04F091CC04E75CF240209109
:1019C0004102622F70E0CF010E940E25281B822F5A
:1019D000332369F066E00E940225C82FC15010F43D
:1019E000CF91089560E080E20E945D0CF7CF9F01E7
:1019F000280F311D2115324018F080E0F0E0E0E0C2
:101A00008E0F9F2F911D89539D4F9093CC048093EF
:101A1000CB04E6CFFF920F931F93CF93DF93EC019C
:101A2000F62EFC0101900020E9F78F010150110909
:101A3000C017D10730F0DF91CF911F910F91FF9028
:101A400008956F2D89910E945D0CF2CF0E940A0DBE
:101A500081E00C94D70C1F93CF93DF93EC01162FEA
:101A6000FE018491811104C0DF91CF911F910895EF
:101A7000612F0E945D0C2196F3CF0E942B0D81E017
:101A80000C94D70C80914502811103C080914402CF
:101A900008950E94EF1D605A75418F4F9F4F6093CC
:101AA000C7047093C8048093C9049093CA048091BA
:101AB00044028111EBCF62E070E089E791E00E947F
:101AC0009C0B892B19F781E080934402DFCF2F9282
:101AD0003F925F926F927F928F929F92AF92BF924E
:101AE000CF92DF92EF92FF920F931F93CF93DF93EA
:101AF00080914502882369F0209146023091470287
:101B00002115310531F08091430261E070E08823B6
:101B100099F0DF91CF911F910F91FF90EF90DF909F
:101B2000CF90BF90AF909F908F907F906F905F907D
:101B30003F902F9008958F5F082F10E01B01082E13
:101B400002C0220C331C0A94E2F7A901422153215E
:101B5000452B89F39091420290FD44C08295880FF5
:101B6000807680930A0198013695279536952795BA
:101B700020930D01815E80930B0110920E0124E6EB
:101B800030E047E050E068E071E088E70E944111F2
:101B9000892B09F0BECFA80125E0440F551F2A95D7
:101BA000E1F78091420280FD2BC049535D4F04E66E
:101BB00010E020E230E060E488E70E946811892BA1
:101BC00009F0A7CF0E94420DE101C095D095809108
:101BD000460290914702C823D923D0934702C0936D
:101BE000460297CF880F880F880F80930A011092C2
:101BF0000D01895F80930B0183E080930E01BFCFBD
:101C0000E1E2F2E080E2DF011D928A95E9F7A5EAC0
:101C1000B1E001EA11E089EAC82E81E0D82E97E010
:101C2000592E772473948D91E80129918E01240F08
:101C3000352F311D29533D4FE82FF0E0EF5DFD4F6B
:101C400090E080E0652C681A872C082E01C0880C73
:101C50000A94EAF77901A12CE701B9907E01B82036
:101C6000662D6A196770962E062E000C770BDB2DF9
:101C700001C0DD0F9A94EAF771956195710967705B
:101C8000772701C0B6946A95EAF7BD2A6081962E3F
:101C90009B289082A39468E0A612DECF019631962D
:101CA0008830910579F6CA16DB0609F0BCCF04E648
:101CB00010E020E230E041E252E07DCF809144022A
:101CC00090914502911103C091E0892708958823DE
:101CD00069F062E070E087E791E00E949C0B892B3D
:101CE00019F08091440208951092440280914402B8
:101CF000EBCF0F931F9380914502882319F160E089
:101D000080E00E94270C0E94C3040E94670D80910E
:101D100044028823B9F00E94EF1D0091C70410917E
:101D2000C8042091C9043091CA04601B710B820B56
:101D3000930B6F3F7F4F8F4F9F4720F41F910F9161
:101D40000C945E0E1F910F9108950F931F93CF93E4
:101D5000DF93C42FD22FFC0182818823C9F04093E6
:101D60004A020E94E31D909349028093480280E258
:101D70008C0F883008F050C0C77081E001C0880F18
:101D8000CA95EAF7DF91CF911F910F910C9412142D
:101D900010914A02141335C0809148029091490273
:101DA0000E94FB1D883C910560F5C0E2CD0F1D1718
:101DB000B9F080E2810F883040F4177081E001C0F3
:101DC000880F1A95EAF70E941914C83048F481E088
:101DD0009D2F977001C0880F9A95EAF70E94121400
:101DE000802F0E940A14C830B8F4D77081E001C077
:101DF000880FDA95EAF7DF91CF911F910F910C943C
:101E0000191480E28C0F883038F4C77081E001C06B
:101E1000880FCA95EAF7EFCFDF91CF911F910F910D
:101E200008950F939C01CB01243F4CE5340759F1F1
:101E3000A8F4293DFCE53F0701F12A3D4CE53407B4
:101E4000D1F1283D3C4591F406E221EE41EE68EDEA
:101E50007CE50E94A50E80E00F910895263FFCE5E9
:101E60003F07E9F0B0F0273F3C45F9F0FC018281E3
:101E7000882339F110924A02EFCF07E225EE45EEB2
:101E800069ED7CE5E6CF06E221EE40EE64EF7CE50D
:101E9000E0CF07E225EE44EE65EF7CE5DACF06E21F
:101EA00021EE42EE66EF7CE5D4CF07E225EE46EE6A
:101EB00067EF7CE5CECF08E221E045EE6AED7CE5F8
:101EC000C8CF81E0C9CFCF93DF93EC01FB018281C2
:101ED000882309F419C1C230FCE5DF07C0F1C6311F
:101EE0009CE5D90730F09E012B5F3C452930310538
:101EF00070F50E94741C9093C2028093C102C0319D
:101F0000ECE5DE0709F4CFC008F05BC0C8308CE513
:101F1000D80709F4B6C088F5C430ECE5DE0709F44B
:101F2000A8C0C0F4C2308CE5D80709F49CC08091E9
:101F3000C1028260C330DC4509F498C08091C102BF
:101F40009091C2020E94821C0E947E1680E0DF9166
:101F5000CF9108958091C1028061C630ECE5DE0723
:101F600009F484C08091C1028860C730DC4508F460
:101F70007DC08091C102806279C0CC308CE5D807E9
:101F800009F489C070F48091C1028C60CA30ECE51C
:101F9000DE0709F46BC008F478C08091C1028E7F1F
:101FA00065C0CE308CE5D80709F479C08091C102B4
:101FB0008B7FCF30DC4508F459C08091C1028F7E01
:101FC00055C0CC3FECE5DE0709F457C030F5C3310E
:101FD0008CE5D80709F46FC078F4C131ECE5DE0771
:101FE00009F465C0C231DC4509F0A8CF0E947E1615
:101FF0008091C1028F773AC0C5318CE5D80709F4CA
:1020000062C008F476C08091C2028160CB3FDC459B
:1020100009F094CF8093C20291CFC115FDE5DF078F
:1020200009F44DC088F48091C2028D7FCE3F9CE5BB
:10203000D90781F38091C2028E7FCF3FDC4550F3F8
:102040008091C2028360E6CFC230FDE5DF0709F46C
:1020500059C008F444C080E0C330DD4509F06ECFBC
:102060000E94081D6BCF8091C10281608093C102E4
:1020700065CF8091C1028460F9CF8091C2028260F5
:10208000C9CF8091C1028064F1CF0E947E168091F9
:10209000C1028068EBCF8091C1028D7FE7CF809134
:1020A000C102877FE3CF8091C1028F7DDFCF809116
:1020B000C1028F7BDBCF8091C102837FD7CF80911C
:1020C000C2028C7FA7CF8091C10282FB992790F931
:1020D00021E0922790FB82F990FB83F9C7CF809192
:1020E000C202982F909591708E7F892B90FB81F979
:1020F00091CF0E947E169091C102892F97FB87F99C
:102100008058B4CF81E0ACCF81E021CFCF93DF9373
:10211000EB0186319C4511F50E94A91B9A819923F8
:1021200099F08A7A91E009F490E090934B02811142
:1021300009C089E20E94631B0E94EC1B80E0DF91D2
:10214000CF91089585E3F6CF80914B02811104C0B1
:1021500089E20E946A1BF0CF85E3FBCF81E0EFCFDD
:102160001092B9008CE08093B8000895EF92FF922E
:102170000F931F93CF93DF93182FEB011092BC00A6
:1021800084EA8093BC000E94E31D7C018091BC0026
:1021900087FF27C08091B900887F883029F080911F
:1021A000B900887F8031D9F51093BB0084E8809313
:1021B000BC000E94E31D8C018091BC0087FF24C0FD
:1021C0002091B900287F90E080E02831B1F081E0D3
:1021D00090E0203411F490E080E091958195910990
:1021E0000CC0CF3FDC0791F20E94E31D8E199F09BE
:1021F0008C179D0758F28EEF9FEFDF91CF911F91C3
:102200000F91FF90EF900895CF3FDC07A9F20E9455
:10221000E31D801B910B8C179D0770F2ECCF8FEFA5
:102220009FEFEBCF0F931F93CF93DF93EB0180933F
:10223000BB0084E88093BC000E94E31D8C01809168
:10224000BC0087FF11C02091B900287F81E090E099
:10225000283211F490E080E0919581959109DF9109
:10226000CF911F910F910895CF3FDC0741F30E945A
:10227000E31D801B910B8C179D0708F38EEF9FEFDA
:10228000EECFCF92DF92EF92FF920F931F93CF93F7
:10229000DF936B018A017901B9010E94B610E60152
:1022A0000C0D1D1DC017D10761F424E92093BC005B
:1022B000DF91CF911F910F91FF90EF90DF90CF9022
:1022C000089597FDF2CFB70189910E941211EACFCC
:1022D000CF92DF92EF92FF920F931F93CF93DF93F2
:1022E000C62F6A017901B8010E94B61097FD0CC093
:1022F000B8018C2F0E941211E601EC0CFD1CCE15CA
:10230000DF0511F097FF0CC024E92093BC00DF919A
:10231000CF911F910F91FF90EF90DF90CF90089594
:10232000B80189910E941211EACF84E98093BC0020
:10233000089590935102809350020895E0915002C5
:10234000F0915102309721F00190F081E02D099435
:1023500080E00895E0915002F0915102309721F011
:102360000280F381E02D09940895E0915002F091EC
:102370005102309739F022E0DC012C930480F58182
:10238000E02D0994089520914E0230914F022817B4
:10239000390771F090934F0280934E02E091500202
:1023A000F0915102309721F00680F781E02D0994D9
:1023B000089520914C0230914D022817390771F091
:1023C00090934D0280934C02E0915002F0915102A3
:1023D000309721F00084F185E02D099408950E9442
:1023E000EF1D6093590270935A0280935B029093A1
:1023F0005C0260935502709356028093570290934B
:102400005802089585B7806885BF85B7806885BF05
:102410000895089508950C94091208950C940D12CE
:102420000E94021289E59CE10E94521E0E940A123B
:102430000C940B1281E008950C941A1208950895DB
:102440000E941E120C941F120E94DA1D0E94400866
:1024500080E00E94E10B0C940E129F92AF92BF920B
:10246000CF92DF92EF92FF920F931F93CF93DF9360
:10247000CDB7DEB72A970FB6F894DEBF0FBECDBF3B
:102480000E946308C82E81110E94EF1183E5A82ED7
:1024900082E0B82E10E000E0902E802F0E941A08F3
:1024A000E82EF501F1905F01F81609F457C080910C
:1024B000B50281FD0E9420088F2D8E25D12CFF248E
:1024C000F394982F9F2109F444C00E941C12882382
:1024D00099F0DE829F82EF2081E009F480E0888716
:1024E0000E94E31D8160782F9A8789874E815F81E2
:1024F00068858A850E94D412F801ED5AFD4F8081CB
:10250000F826F0820E94790EC1100E94420D0E94AE
:10251000820A0E949E1190915202891799F10E949D
:102520009E11809352022A960FB6F894DEBF0FBE1A
:10253000CDBFDF91CF911F910F91FF90EF90DF9072
:10254000CF90BF90AF909F900C94E80501E010E011
:10255000A3CFD394FF0CF5E0DF12B3CF0130110508
:10256000A9F78FEF89838A831B820E94E31D816014
:10257000782F9D838C8349815A816B818D810E9444
:10258000D412C0CF2A960FB6F894DEBF0FBECDBFCF
:10259000DF91CF911F910F91FF90EF90DF90CF903F
:1025A000BF90AF909F900895DF92EF92FF920F93AC
:1025B0001F93CF93DF93CDB7DEB72B970FB6F89469
:1025C000DEBF0FBECDBF7A878B87F42E052F162F67
:1025D000E72ED82E61110E94C91B1E821D827E2DFE
:1025E000EC82DD824F2D502F612F8D2D9E812B96F9
:1025F0000FB6F894DEBF0FBECDBFDF91CF911F9114
:102600000F91FF90EF90DF900C94F418FC01808103
:1026100091810C94351BCF93C82F882309F48BC06C
:102620008238C1F40E949E1181FD85C089E30E9419
:10263000631B0E94EC1B2FEF81EE94E02150804041
:102640009040E1F700C0000089E30E946A1BCF912F
:102650000C94EC1B8338A1F40E949E1180FD6BC08A
:1026600083E50E94631B0E94EC1B2FEF81EE94E038
:10267000215080409040E1F700C0000083E5E5CFA5
:102680008438A1F40E949E1182FD55C087E40E9407
:10269000631B0E94EC1B2FEF81EE94E021508040E1
:1026A0009040E1F700C0000087E4CFCF8CEF8C0FA3
:1026B000813A90F46C2F80910F01909110010E944B
:1026C0001F1D882329F08C2F0E946A1B0E94EC1B7F
:1026D0008C2F0E94631BBBCF80E28C0F883048F4A4
:1026E000C77081E001C0880FCA95EAF70E94AC1B51
:1026F000AECFEBE5EC0FE33040F4F0E0E952FE4FF3
:10270000808190E0CF910C94C311E8E5EC0FE731A4
:1027100050F4F0E0EE0FFF1FE755FE4F80819181EE
:10272000CF910C94D911CD3E30F08C2F0E9494099A
:10273000CF910C94670ACF910895882309F452C071
:10274000823871F40E949E1181FF4CC089E30E947F
:10275000631B0E94EC1B89E30E946A1B0C94EC1B18
:10276000833859F40E949E1180FF3CC083E50E948B
:10277000631B0E94EC1B83E5EFCF843859F40E9461
:102780009E1182FF2FC087E40E94631B0E94EC1BF6
:1027900087E4E2CF9CEF980F913AF0F290E2980F25
:1027A000983050F4877091E001C0990F8A95EAF74C
:1027B000892F0E94B21BD2CF9BE5980F933020F453
:1027C00090E080E00C94C31198E5980F973120F4C5
:1027D00090E080E00C94D9118D3E20F00E94EE092B
:1027E0000C94670A08951F93CF93DF93182FEB0182
:1027F0000E940B13209731F4812FDF91CF911F910D
:102800000C949D138FE99FE00197F1F700C0000041
:102810002197F0CF70E060E0893311F460E570E05B
:102820000C94F313882321F00E94AC1B0C94EC1B36
:102830000895882321F00E94B21B0C94EC1B08958C
:10284000BF92CF92DF92EF92FF920F931F93CF939D
:10285000DF936C01D62FC72FFC01128105810295F1
:102860000F700E94811BE82E8823A1F0E12E112316
:1028700089F08C2F807F803429F080E28D0FE12C4D
:10288000883040F082E00E943D1C0E94811B91E054
:10289000E82EE926BC2EB2949FE0B922FBE0FB159E
:1028A00098F1EB2DF0E0E459F74D0C9436250C2F00
:1028B0000F70C07F11F00295007F1123A9F0002353
:1028C00059F080E28D0F883010F0D11109C0802FAF
:1028D0000E94AC1B0E94EC1B8D2F0E940B1314C096
:1028E000802F0E94BC1BF6CF8D2F0E949D130023CA
:1028F00059F080E28D0F883010F0D1112CC0802F5C
:102900000E94B21B0E94EC1B2B2D2850330B24304D
:10291000310520F40E949E110E94E805EE2009F482
:102920008EC10E947D1B80FD8AC1F60112820E9429
:10293000771B0E94001AC6010E9440160E94771B56
:10294000DF91CF911F910F91FF90EF90DF90CF908B
:10295000BF900C94211A802F0E94C21BD3CF2C2F22
:102960002F70F22EC07FC03219F0F29480EFF8225F
:10297000DD2369F0D13049F1112391F1002351F1A8
:10298000F601858180FFA8CF8F70858323C0112336
:1029900081F0011106C00E94CF1B8F290E941214E2
:1029A000B3CF0130C1F70E94CF1B8F290E94D51BE6
:1029B000ABCF011106C00E94E21B8F2D0E9419149B
:1029C000A3CF013009F4A0CFF6CF112329F00630B0
:1029D00008F09ACF8F2DE2CF053008F095CFEDCFDC
:1029E000002359F3D93349F4FFEF27EE33E0F150D8
:1029F00020403040E1F700C000008D2F0E949D1361
:102A000083CF8C2F86958695837069F0813009F08D
:102A10007BCF8D2F9C2F9370111102C090E080E02E
:102A20000E94D91171CF8D2F9C2F9370111102C06C
:102A300090E080E00E94C31167CF8D2F112329F011
:102A40000E9494090E94670A5FCF0E94EE09FACFA4
:102A50008C2F837009F041C0111156CF4D2F429534
:102A600046954770440F440F0D2F0F7010E030E073
:102A700020E0042E04C0000F111F221F331F0A94F0
:102A8000D2F760E070E0CB01D4FF0FC06FE070E0E0
:102A900080E090E004C0660F771F881F991F4A9559
:102AA000D2F76095709580959095C695C695C37040
:102AB000602B712B822B932BC23049F058F4C1301C
:102AC00019F00E94B21920CF0E94A0191DCF0E94B8
:102AD000C4191ACF0E949E1917CF8695112311F0A1
:102AE0008C2F8170882309F40FCF4D2F4295469586
:102AF0004770440F440F0D2F0F7010E030E020E0BE
:102B0000042E04C0000F111F221F331F0A94D2F796
:102B100060E070E0CB01D4FF0FC06FE070E080E0B8
:102B200090E004C0660F771F881F991F4A95D2F75F
:102B30006095709580959095C695C695C370602BED
:102B4000712B822B932BC23049F058F4C13019F00D
:102B50000E94771AD9CE0E94651AD6CE0E94891A91
:102B6000D3CE0E94DA19D0CECF70112329F08C2F4A
:102B70000E94001A8D2F12CF8D2F0E9419148C2FB6
:102B80000E94211AC1CED23F89F160F4D03FC9F032
:102B9000D13F29F1112309F442C001119DCE8C2FA0
:102BA0008F7121C0D33F39F1D43FA1F7112369F1CF
:102BB000CF718C2F0E94001A63E08C2F0E94221C80
:102BC000A3CE112341F0053008F09ECE8C2F8F71DB
:102BD0000E94441A99CE063008F096CEF7CF8C2F7B
:102BE0008F71112369F20E94001A8ECE8C2F8F7183
:102BF0001123C9F3C5CF112329F08C2F8F710E94A7
:102C0000EB1982CE0E94E6197FCE81E00E943D1C26
:102C1000023008F479CE82E00E943D1C75CE00237C
:102C200059F0D93309F0E9CE8FEF97EEE3E0815008
:102C30009040E040E1F7DFCE8C2F8F71A1CFDF9184
:102C4000CF911F910F91FF90EF90DF90CF90BF90A9
:102C500008950F931F93CF93DF93EC0168817981DF
:102C60008A810E943F1B8C010E949B1A0E949D1921
:102C7000B801CE01DF91CF911F910F910C942014D8
:102C8000CF93DF93EC018B819C81892B29F0888184
:102C9000998189238F3F59F4DF91CF910895CE0117
:102CA0000E942916CE01DF91CF910C942105CE010F
:102CB0000E9442058111F3CF0E94811B882361F39A
:102CC0008A81882349F382E0DF91CF910C943D1CE7
:102CD00090E080E00E94C31190E080E00E94D91152
:102CE0000E94C91B0E94CC1B0E94EC1B0E948E0BF1
:102CF0000C94670A0E94711B0C9468160E94B91B01
:102D00000C947A16E92FE295EF70E250EE3070F4F1
:102D1000F0E0E858F74D0C943625803F19F020F488
:102D2000883E20F481E00895843FE1F380E0089537
:102D3000883EC0F3813FD1F7F5CF93FB882780F918
:102D400008950E94351B0C948216CF93DF9300D018
:102D500000D00F92CDB7DEB70F900F900F900F906D
:102D60000F90DF91CF910895CF93DF9300D000D0E3
:102D700000D0CDB7DEB726960FB6F894DEBF0FBEF3
:102D8000CDBFDF91CF9108951F93CF93DF93C09173
:102D90005E0216E080915F028C1304C0DF91CF9138
:102DA0001F910895D0E01C9FF0011D9FF00D11248C
:102DB000E05AFD4F40815181628173818481958108
:102DC0000E94B4162196C770E5CF409190025091B1
:102DD000910260919202709193028091940290917D
:102DE00095020C94B4161F93CF93DF9380919502B4
:102DF000807FA9F480919202882389F080915E02FD
:102E0000C0915F026091900270919102A091930233
:102E1000B0919402D62FD72316E0C81304C0DF91D7
:102E2000CF911F91089590E0109711F0DF3F19F4B2
:102E300001968770F2CF189F9001199F300D1124D1
:102E4000F901E05AFD4F41814713F2CF408146130B
:102E5000EFCF42814111ECCF438154814A1B5B0B80
:102E6000483C510528F7809195028F7080618093CE
:102E70009502F901EB59FD4F80818F70806180834D
:102E800080E992E00E944016DF91CF911F910C944F
:102E9000C416AF92BF92CF92DF92EF92FF920F9340
:102EA0001F93CF93DF93CDB7DEB761970FB6F8943A
:102EB000DEBF0FBECDBF8C0185E0F801DE011D969F
:102EC00001900D928A95E1F7F80140815181E280ED
:102ED00080E9C82E82E0D82E60919302709194020E
:102EE0006115710509F461C19091900220919102E0
:102EF000892F82238F3F09F458C1A380B480F090BA
:102F00009202F501E61BF70BFF2009F4FCC080914B
:102F10009502382F307FE83CF10508F0B2C031113E
:102F200079C0FE2C251323C0941321C0E1101FC0CB
:102F30008F708061809395020E94E516C6010E9401
:102F4000401680919502F80185838F2D61960FB60A
:102F5000F894DEBF0FBECDBFDF91CF911F910F91CF
:102F6000FF90EF90DF90CF90BF90AF900895AB2887
:102F700029F0842F85238F3F09F033C180E0F82F9B
:102F8000F170DF2E80FF3CC080915E0220915F02D5
:102F900036E0821315C04D875E878D859E850E9421
:102FA000351B292F22952F702230F0F0243018F590
:102FB0009F70F1F0F8019581907FD1F4D12C1EC063
:102FC00090E0389FF001399FF00D1124E05AFD4F39
:102FD0006181651306C06081641303C062816E1154
:102FE0000FC001968770D5CF9F7011F0882331F301
:102FF000805E883018F3C8010E944016FD2CA5CFD2
:10300000EE2009F4A2CF8091950281608093950211
:10301000F12C9BCF251306C0941304C0F801EE20B9
:1030200009F48DC04D875E878D859E850E94A1160F
:10303000882319F1EE2009F180919502803270F019
:10304000209190023091910238872F831986BB8698
:10305000AA868C87CE0107960E94401686E0F8016A
:10306000A0E9B2E001900D928A95E1F70E94F31673
:103070000E94E516FF24F39468CFC8010E94401611
:10308000F9CF311113C07A2DB98AA88A6E2D89899A
:103090000E94A51680E992E00E94401686E0F601A3
:1030A00011928A95E9F70E94E516B2CF25130FC059
:1030B00094130DC0E1100BC0F8018583C8010E9474
:1030C000401686E0F60111928A95E9F73ECF4D87CA
:1030D0005E878D859E850E94A116882371F2EE2061
:1030E00061F280919502803208F4B8CF209190026D
:1030F000309191023A8329831B82BD82AC828E83F8
:10310000CE010196A9CFE83CF10508F041C0FE2CA4
:10311000EE2009F4B2CF25132AC0941328C0809161
:10312000950280FD1BC0982F907FC1F0F801858328
:10313000903F31F0982F907F905F8F70892B85831F
:10314000C8010E94401686E0F801A0E9B2E00190B3
:103150000D928A95E1F70E94E516F7CE86E0F80118
:10316000A0E9B2E001900D928A95E1F7EECE4D878D
:103170005E878D859E850E94A11681116FCF8091FB
:103180009502816080939502C8010E944016DDCEB1
:103190007A2DB98AA88A6E2D89890E94A51686E0A3
:1031A000F60111928A95E9F7D6CFEE2009F465CFA2
:1031B0004D875E878D859E850E94A116F82E8823F7
:1031C00009F45BCF86E0F801A0E9B2E001900D922E
:1031D0008A95E1F780E992E00E9406130E94F316B7
:1031E000BACF81E08E25CBCE1F93CF93DF93CDB79F
:1031F000DEB72C970FB6F894DEBF0FBECDBF4F835E
:10320000588769877A878B879C87CE0107960E94AB
:103210004917882369F08A859B85892B39F04F816E
:103220005885842F85238F3F09F071C016E05FC059
:1032300086E0FE013796DE01119601900D928A9587
:10324000E1F78A859B85892B89F38F81988589236E
:103250008F3F61F320915F0230E0C90101968770D2
:10326000992740915E024817190671F40E947E1654
:1032700010925F0210925E0286E0E0E9F2E0DF0168
:103280001D928A95E9F7D2CF96E0929FD001939F45
:10329000B00D1124A05ABD4FFE01319601900D9240
:1032A0009A95E1F780935F020E94C416BFCF819F79
:1032B000C0011124805A9D4F0E9449178823E9F0CC
:1032C000E0915E021E9FF0011124E05AFD4F408103
:1032D000518162817381848195810E94B4168091AD
:1032E0005E0290E001968770992780935E0280913C
:1032F0005E0290915F028913DACF2C960FB6F89494
:10330000DEBF0FBECDBFDF91CF911F9108956985BC
:103310007A858B859C850E94B41688CF08950C947D
:103320008E190E948F196093A4027093A502809356
:10333000A6029093A7020C94681608950C94911914
:103340000F931F930091A4021091A5022091A60251
:103350003091A702602B712B822B932B1F910F9121
:103360000C9491190F931F930091A4021091A50240
:103370002091A6023091A702602371238223932318
:103380001F910F910C9491190F931F930091A40218
:103390001091A5022091A6023091A7026027712703
:1033A000822793271F910F910C9491190C948E19D9
:1033B0000C94D6190E94D8196093A0027093A102B0
:1033C0008093A2029093A3020C94681660E070E0D0
:1033D000CB010C94DA190F931F9341E050E060E0A9
:1033E00070E08A019B0104C0000F111F221F331FD0
:1033F0008A95D2F7C901B8011F910F910C94DA197F
:103400000F931F9341E050E060E070E004C0440F70
:10341000551F661F771F8A95D2F78091A002909161
:10342000A102A091A202B091A3028A019B01082BE4
:10343000192B2A2B3B2BC901B8011F910F910C941A
:10344000DA190F931F9341E050E060E070E004C090
:10345000440F551F661F771F8A95D2F7CB01BA011B
:1034600060957095809590950091A0021091A102B1
:103470002091A2023091A30260237123822393231F
:103480001F910F910C94DA190F931F9341E050E0B4
:1034900060E070E004C0440F551F661F771F8A95D7
:1034A000D2F78091A0029091A102A091A202B091C6
:1034B000A3028A019B01082719272A273B27C90154
:1034C000B8011F910F910C94DA190F931F9300917B
:1034D000A0021091A1022091A2023091A302602BC0
:1034E000712B822B932B1F910F910C94DA190F9350
:1034F0001F930091A0021091A1022091A20230918D
:10350000A30260237123822393231F910F910C94B4
:10351000DA190F931F930091A0021091A10220913C
:10352000A2023091A30260277127822793271F915F
:103530000F910C94DA190895E92FEE0FEE0F9E0FFC
:10354000890F982F977041E001C0440F9A95EAF7D0
:1035500086958695869595E0899FF0011124EA5617
:10356000FD4F30E020E070E05191DF011197CB0179
:10357000022E02C0969587950A94E2F78170819594
:103580008527842385278C932F5F3F4F2530310576
:1035900059F70895E92FEE0FEE0F9E0F890F982F20
:1035A000977086958695869525E0829FF001112477
:1035B000EA56FD4F50E040E080E0219130E0092ED6
:1035C00002C0369527950A94E2F721703327042E1E
:1035D00001C0220F0A94EAF7822B4F5F5F4F4530FC
:1035E000510559F70895BF92CF92DF92EF92FF9263
:1035F0000F931F93CF93DF938C01C090A002D090C4
:10360000A102E090A202F090A3028091A402909106
:10361000A502A091A602B091A702C82AD92AEA2A37
:10362000FB2ACFE1D0E0BC2ED701C6010C2E04C08E
:10363000B695A795979587950A94D2F780FD0EC009
:10364000219788F7B12C8B2DDF91CF911F910F918E
:10365000FF90EF90DF90CF90BF900895B8018C2F2E
:103660000E940406019761F3EECFCF93DF93EC0144
:103670000E94F31ABE01DF91CF910C9404061F93B0
:10368000CF93DF93EB0190915D02992331F0CB0151
:10369000DF91CF911F910C94351B882379F0CB01DA
:1036A0000E94F31A182F682FCE010E949C1ABE01A7
:1036B000812FDF91CF911F910C940406CB010E94C2
:1036C000CA1A182FF4CF682F80910F019091100122
:1036D0000C94551D682F80910F01909110010C944E
:1036E000571D80910F01909110010C94591D8091EC
:1036F000A80285958595859508958091A802877083
:1037000008959091A802977081E009F480E00895EF
:103710009091C20292FB222720F9281751F080FBDA
:1037200092F99093C2028091C1029091C2020C94CE
:10373000821C08958091C20282FB882780F991E063
:1037400089270C94881B81E00C94881B80E00C94E2
:10375000881B8091B40208959091B402892B8093C4
:10376000B402089580959091B40298239093B40286
:1037700008951092B40208959091B302892B80931A
:10378000B302089580959091B30298239093B30269
:1037900008951092B30208951092B2020895809194
:1037A000A902089508950C94D21B9091C20292FD33
:1037B00008C09091A902981721F08093A9020C9457
:1037C000D31B08958091A902882329F01092A902A1
:1037D00080E00C94D31B0895E0910F01F09110014B
:1037E0008091B4028083E0910F01F09110018081FB
:1037F0009091B302892B8083E0910F01F091100129
:1038000080819091B202892B80839091A9029923A3
:1038100081F0E0910F01F09110018081892B80836C
:1038200080910F01909110010E940D1D81110E9445
:10383000E21B80910F01909110010C94AA11089540
:103840000C941F1C9091C20292FD10C098E0899FB9
:1038500090011124622B6093A8020E94001A8091AB
:10386000A8028595859585950C94201C0C94001ACA
:103870001092A80280E00C94201C9091A8028095E0
:1038800089238093A802282F277039F4282F082E27
:10389000000C330B9217130621F49091C20292FF91
:1038A00007C08595859585950E94211A0C94381C32
:1038B000089580E008956FEF7FEF90E080E00C9432
:1038C0001D2890E080E00E94F92721E08A3E9E4F6B
:1038D00009F020E0822F089582E090E00C94F12717
:1038E00083E090E00C94F127CF9384E090E00E9475
:1038F000F127C82F82E290E00E94F127982F8C2FA9
:10390000CF910895CF93C92F682F84E090E00E9453
:10391000FF276C2F82E290E0CF910C94FF27AB0140
:10392000BC018FE090E00C941128AB01BC0183E155
:1039300090E00C94112860E070E0CB010C94951C91
:1039400060E070E0CB010E948F1C0C949B1C6AEE1F
:103950007EEF90E080E00E941D2860E082E090E031
:103960000E94FF2760E083E090E00E94FF27109212
:10397000A4021092A5021092A6021092A70260E083
:1039800084E090E00E94FF2760E082E290E00E94E5
:10399000FF2760E085E090E00E94FF2760E086E07E
:1039A00090E00E94FF276FEF87E090E00E94FF27E2
:1039B00040E050E0BA0188E090E00E94112860E009
:1039C0008DE090E00E94FF2740E050E0BA0188E1DE
:1039D00090E00E94112860E087E190E00E94FF27BC
:1039E00040E050E0BA018CE190E00E94112870E0C4
:1039F00060E080E290E00E941D2840E050E0BA01C3
:103A000088E190E00E9411280C94A01C0C94A71C43
:103A1000682F8EE090E00C94FF279C012E5F3F4FB3
:103A2000AC01485F5F4F80E02417350709F4089523
:103A3000F90191919F019923B9F38F5FF5CF662327
:103A400049F0FC01329608962191261729F0E817D3
:103A5000F907D1F780E0089581E008959C01FC0109
:103A600032969FEF80E04191461751F09F3F19F445
:103A7000411101C0982F8F5F8630A9F79F3F09F44D
:103A80000895290F311D97FD3A95F9016283089534
:103A9000FC01329608962191261303C0DF0111978D
:103AA0001C92E817F907B9F708950C942E1D0C9491
:103AB000481D029626E0FC0111922A95E9F7089527
:103AC000089508950C94611D8091D504843049F1C6
:103AD0000E94621D80E00E94E8051092B60288E113
:103AE00090E020E40FB6F894A895809360000FBE94
:103AF0002093600083B7817F846083BF83B7816038
:103B000083BF7894889583B78E7F83BF0FB6F89470
:103B1000A895809160008861809360001092600099
:103B20000FBE089508950E94601D0E9463080E94C0
:103B3000921D80E00E941A0891E0811107C081E087
:103B40000E941A0891E0811101C090E0892F089528
:103B500008950C94A81D0E947E160E949E110E943A
:103B6000E8050C94A91D1F921FB61F9211248F9374
:103B70009F93AF93BF938091B602811113C0809140
:103B8000CD049091CE04A091CF04B091D004419681
:103B9000A11DB11D8093CD049093CE04A093CF04BA
:103BA000B093D004BF91AF919F918F911F901FBE92
:103BB0001F90189582E084BD93E095BD9AEF97BD64
:103BC00080936E0008952FB7F8948091CD04909162
:103BD000CE04A091CF04B091D0042FBF08952FB789
:103BE000F8946091CD047091CE048091CF049091AF
:103BF000D0042FBF08959C014FB7F8948091CD0455
:103C00009091CE04A091CF04B091D0044FBF821BFD
:103C1000930B089578941F921FB61F9211248F93CF
:103C20009F93AF93BF938091CD049091CE04A091C8
:103C3000CF04B091D0040196A11DB11D8093CD0495
:103C40009093CE04A093CF04B093D004BF91AF91D2
:103C50009F918F911F901FBE1F90189581E08093B8
:103C6000E00080E28093D8001092C9008FE19EE4CA
:103C70000197F1F700C0000087E090EBDC01809332
:103C8000DE049093DF04A093E004B093E10488E1A4
:103C90009CE00FB6F894A895809360000FBE9093B7
:103CA0006000FFCF9093DB018093DA01089580914B
:103CB000BF020895CF93DF9300D00F92CDB7DEB748
:103CC0009091D504943019F589837B836A8382E0CF
:103CD0008093E9008FEF9091E800815095FD06C038
:103CE00095ED9A95F1F700008111F5CF8091E800EC
:103CF00085FF0DC050E040E063E070E0CE0101962A
:103D00000E9471208091E8008E778093E8000F90E8
:103D10000F900F90DF91CF910895BC0184E00C9437
:103D20005A1EBC0183E00C945A1E9C0182E08093D1
:103D3000E9009FEF8091E800915085FD06C085ED78
:103D40008A95F1F700009111F5CF8091E80085FF89
:103D50000CC050E040E066E070E0C9010E947120B4
:103D60008091E8008E778093E8000895CF93DF93E9
:103D7000EC0181E08093E9008FEF9091E8008150A1
:103D800095FD06C095ED9A95F1F700008111F5CFEC
:103D90008091E80085FF14C050E040E068E070E0EA
:103DA000CE010E9471208091E8008E778093E80018
:103DB00088E0FE01A7EBB2E001900D928A95E1F751
:103DC000DF91CF9108958091D404811109C00E94A0
:103DD00001220E945E228091E20084608093E200D2
:103DE00008951092D404089508950895089542E026
:103DF00061EC81E00E947D2142E261EC82E00C9462
:103E00007D218091D704833009F45FC030F4813084
:103E1000C1F1823009F49BC008958A3009F487C04B
:103E20008B3009F46DC0893009F04EC08091D60402
:103E3000813209F049C08091DA049091DB04029745
:103E400008F042C08091E800877F8093E80080916D
:103E5000E80082FF35C09091F3008091F200029754
:103E600029F48091F1008B7F813021F48091F10061
:103E70008093BF028091E8008B778093E8000C94D8
:103E8000B1218091D604813AF9F48091E800877FCE
:103E90008093E8008091DA049091DB04892B61F42F
:103EA00068E087EB92E070E00E94C0208091E8001B
:103EB0008B778093E800089560E090E080E0F3CF96
:103EC0008091D5048111C3CF08958091D604813AA1
:103ED000D9F78091DA049091DB04892BA9F78091BE
:103EE000E800877F8093E8008091E80080FFFCCFA6
:103EF00080911B018093F1008091E8008E77BDCF07
:103F00008091D604813201F78091DA049091DB042C
:103F1000892BD1F68091E800877F8093E8000E948A
:103F2000B1218091D80480931B010C947E1680915E
:103F3000D604813249F68091E800877F8093E800BB
:103F40000E94B1218091D9048093C002089580918C
:103F5000D604813A09F0B8CF8091E800877F80933A
:103F6000E8008091E80080FFFCCF8091C002C2CFC2
:103F700084B7877F84BF0FB6F894A89580916000BE
:103F8000886180936000109260000FBE80E890E02E
:103F90000FB6F89480936100909361000FBE0E9469
:103FA00010120E9401220E945E228091E200846031
:103FB0008093E20078940E94E7240E94241281E119
:103FC00091E00E9499118091D504853099F00E946A
:103FD0002D120E942012F7CF0E94641D8091D304FD
:103FE000882341F00E94931D882321F00E945B20CA
:103FF0000E947E168091D504853071F30E94AB1D1E
:10400000E6CF0C940320292F33272330310519F1F3
:1040100068F42130310509F444C02230310509F437
:1040200045C090E080E030E020E025C0213231053D
:1040300049F122323105A9F780E490E027EC37E01E
:1040400061157105C1F08BE790E02CE437E0613039
:10405000710589F0E6CF99278130910581F00097AD
:1040600029F00297F1F6EBEDF6E002C0EBEFF6E097
:10407000849190E09F01FA01318320830895EDEE51
:10408000F6E0F6CF89E090E021E137E061157105B7
:1040900091F389E090E02AE237E06130710559F34D
:1040A000C0CF82E190E02AE337E0E5CF8BE390E0F8
:1040B0002FEF36E0E0CF80E189BD82E189BD09B410
:1040C00000FEFDCF8091D8008F7D8093D800809135
:1040D000E00082608093E0008091E00081FDFCCFF1
:1040E0000895AF92BF92CF92DF92FF920F931F93EA
:1040F000CF93DF936C01EB018A010E94D021F82E4F
:10410000811123C00115110539F0F80180819181D9
:10411000C81BD90BC80ED91EB12CA12C2097A9F011
:104120008091E80085FD22C08091E8008E77809321
:10413000E80001151105A1F0F80180819181A80E18
:10414000B91EB182A08285E0F82E8F2DDF91CF912C
:104150001F910F91FF90DF90CF90BF90AF90089587
:104160000E94D0218823D1F2F82EEFCFF601819161
:104170006F018093F1002197FFEFAF1ABF0ACECFF6
:10418000FC018091DC049091DD0486179707A0F074
:104190006115710529F49091E8009E779093E800ED
:1041A00090E06115710551F4911108C08091E8000B
:1041B00082FF34C080E00895BC01F2CF8091D50425
:1041C0008823C1F18530C1F18091E80083FD30C0C2
:1041D0008091E80082FDEACF8091E80080FFE1CF86
:1041E0008091F3002091F200382F6115710519F0CC
:1041F0002830310558F091E02830310509F090E081
:104200002091E8002E772093E800CBCF8191809316
:10421000F100615071092F5F3F4FE7CF8091D504C6
:10422000882341F0853041F08091E80083FFBECFC4
:1042300081E0089582E0089583E00895FC01809173
:10424000DC049091DD0486179707A0F061157105D5
:1042500029F48091E8008E778093E80090E0611562
:10426000710551F4911108C08091E80082FF35C0BA
:1042700080E00895BC01F2CF8091D5048823C9F174
:104280008530C9F18091E80083FD31C08091E8005C
:1042900082FDEACF8091E80080FFE1CF8091F300BA
:1042A0002091F200382F6115710519F02830310581
:1042B00058F091E02830310509F090E08091E80055
:1042C0008E778093E800CBCF84918093F100319674
:1042D000615071092F5F3F4FE6CF8091D50488234D
:1042E00041F0853041F08091E80083FFBDCF81E04F
:1042F000089582E0089583E00895982F973028F07C
:104300008F708093E90081E008959093E900242F55
:10431000762F50E0981731F07091EC002091ED006D
:104320005091F00021FD02C09F5FE8CF3091EB007B
:104330003E7F3093EB003091ED003D7F3093ED00F8
:104340003091EB0031603093EB007093EC002093E0
:10435000ED005093F0002091EE0027FDE5CF80E0C6
:1043600008958091D60487FF13C08091E80082FFF2
:1043700006C08091E8008B778093E80004C08091AC
:10438000D5048111F2CF08958091D5048823D9F303
:104390008091E80080FFF8CF8091E8008E77ECCF25
:1043A0002091E4003091E50095E6A9012091EC0010
:1043B000822F817020FF06C08091E80080FF06C038
:1043C00080E008952091E80022FD1AC08091D50474
:1043D000882389F0853089F08091EB0085FD0FC03E
:1043E0002091E4003091E50042175307F9F2915013
:1043F000E1F684E0089582E0089583E0089581E085
:1044000008950E946F220E947722E0EEF0E0808102
:1044100081608083E8EDF0E080818F77808319BC34
:10442000A7EDB0E08C918E7F8C9380818F7E80830E
:104430001092D40408950F931F93CF93DF930E949B
:104440006F220E947722C8EDD0E088818F77888321
:1044500088818068888388818F7D888319BC1092C9
:10446000D5041092D1041092D3041092D20400EE1D
:1044700010E0F80180818B7F808388818160888350
:1044800042E060E080E00E947D21E1EEF0E080818A
:104490008E7F8083E2EEF0E0808181608083808186
:1044A00088608083F80180818E7F8083888180612D
:1044B0008883DF91CF911F910F910895E8EDF0E08F
:1044C00080818F7E8083E7EDF0E080818160808352
:1044D00084E082BF81E08093D4040C941B22E8ED39
:1044E000F0E080818E7F80831092E2000895109228
:1044F000DA001092E10008951F920F920FB60F920A
:1045000011242F933F934F935F936F937F938F93D8
:104510009F93AF93BF93EF93FF938091E10082FF4E
:104520000BC08091E20082FF07C08091E1008B7F89
:104530008093E1000E94E6248091DA0080FF19C098
:104540008091D80080FF15C08091DA008E7F809323
:10455000DA008091D90080FF96C080E189BD82E1B8
:1045600089BD09B400FEFDCF81E08093D5040E948F
:10457000E31E8091E10080FF19C08091E20080FF7E
:1045800015C08091E2008E7F8093E2008091E2006E
:1045900080618093E2008091D80080628093D8008F
:1045A00019BC85E08093D5040E94F51E8091E1003E
:1045B00084FF2BC08091E20084FF27C080E189BD89
:1045C00082E189BD89B5982F917080FFFBCF8091E2
:1045D000D8008F7D8093D8008091E1008F7E8093FA
:1045E000E1008091E2008F7E8093E2008091E20002
:1045F00081608093E2008091D104882309F449C04E
:1046000084E08093D5040E94F61E8091E10083FF30
:1046100029C08091E20083FF25C08091E100877F5F
:104620008093E10082E08093D5041092D1048091C0
:10463000E1008E7F8093E1008091E2008E7F809385
:10464000E2008091E20080618093E20042E060E05D
:1046500080E00E947D218091F00088608093F000CE
:104660000E94F41EFF91EF91BF91AF919F918F91A6
:104670007F916F915F914F913F912F910F900FBE5E
:104680000F901F90189519BC1092D5040E94F11E2E
:1046900070CF8091E30087FD93E09093D504B3CF72
:1046A0001F920F920FB60F9211242F933F934F93A7
:1046B0005F936F937F938F939F93AF93BF93CF93AA
:1046C000DF93EF93FF93D091E900DF708091EC00CE
:1046D000C82FC17080FDC0E81092E9008091F00001
:1046E000877F8093F00078940E9494231092E900D1
:1046F0008091F00088608093F000CD2BCF70C09344
:10470000E900FF91EF91DF91CF91BF91AF919F9120
:104710008F917F916F915F914F913F912F910F906A
:104720000FBE0F901F9018951F93CF93DF93CDB7B7
:10473000DEB7AA970FB6F894DEBF0FBECDBF86EDE9
:1047400094E02091F100FC012193CF01F4E08E3D33
:104750009F07B9F70E94011F8091E80083FF1EC1E7
:104760008091D6049091D7049A3008F017C1E92FB0
:10477000F0E0EA57F74D0C943625803899F08238EE
:1047800009F00CC18091DA048F70873008F006C1FF
:104790008093E9008091EB0085FB882780F91092D7
:1047A000E90006C08091D2049091D30491118260F7
:1047B0009091E800977F9093E8008093F100109229
:1047C000F1008091E8008E77E5C0882309F4D3C01A
:1047D000823009F0E3C08091D8048111D6C0809165
:1047E000DA048F702FEF280F263008F0D7C080939F
:1047F000E9002091EB0020FFC8C0933031F4809194
:10480000EB0080628093EB00C0C09091EB00906160
:104810009093EB0021E030E001C0220F8A95EAF787
:104820002093EA001092EA008091EB008860EACFC2
:104830008111B4C01091D8041F778091E300807873
:10484000812B8093E3008091E800877F8093E800CC
:104850000E94B1218091E80080FFFCCF8091E300AD
:1048600080688093E30082E0111183E08093D50497
:1048700095C08058823008F091C08091D804909102
:10488000D9048C3D23E09207A1F583E08A838AE274
:1048900089834FB7F894DE01139620E03EE051E2A1
:1048A000E32FF0E050935700E49120FF03C0E2951E
:1048B000EF703F5FEF708E2F90E0EA30C0F0C79648
:1048C0008D939D932F5F243159F74FBF8091E8005E
:1048D000877F8093E8006AE270E0CE0101960E9433
:1048E000C0208091E8008B778093E80057C0C09685
:1048F000E7CF6091DA047091DB04AE014F5F5F4F48
:104900000E940120BC01892B09F448C09091E80065
:10491000977F9093E80089819A810E941E21E1CFC0
:104920008038E1F58091E800877F8093E8008091EE
:10493000D1048093F10045CF811130C09091D8040B
:10494000923060F58091E800877F8093E800909333
:10495000D1040E94B1218091D104882311F084E018
:1049600005C08091E30087FDFACF81E08093D504F4
:104970000E94F71E13C08091D804813079F481E041
:10498000933009F080E08093D3041092E900809185
:10499000E800877F8093E8000E94B1218091E800C1
:1049A00083FF0AC08091E800877F8093E8008091B0
:1049B000EB0080628093EB00AA960FB6F894DEBFFE
:1049C0000FBECDBFDF91CF911F9108950895CF9372
:1049D0008091D5048823A1F0C091E900CF70909117
:1049E000EC00892F817090FD80E8C82B1092E900BF
:1049F0008091E80083FD0E949423CF70C093E9006A
:104A0000CF910895991B79E004C0991F961708F07B
:104A1000961B881F7A95C9F780950895AA1BBB1B22
:104A200051E107C0AA1FBB1FA617B70710F0A61BAE
:104A3000B70B881F991F5A95A9F780959095BC01CF
:104A4000CD01089597FB072E16F4009407D077FD4B
:104A500009D00E940E2507FC05D03EF49095819563
:104A60009F4F0895709561957F4F0895EE0FFF1F3A
:104A70000590F491E02D0994FB01DC0102C0059042
:104A80000D9241505040D8F70895FB01DC0104C05D
:104A90008D910190801921F441505040C8F7881B36
:104AA000990B0895AEE0B0E0E8E5F5E20C944128FA
:104AB0000D891E898F89988D26E02C831A8309839E
:104AC00097FF02C080E090E801979E838D83AE013E
:104AD000455E5F4F698D7A8DCE0101960E948225D9
:104AE0004D815E8157FD0AC02F81388542175307DB
:104AF0000CF49A01020F131FF80110822E96E4E0C5
:104B00000C945D28ABE0B0E0E8E8F5E20C943328C3
:104B10007C013B018A01FC0117821682838181FF9F
:104B2000B9C19AE0292ECE0101965C01F70193816B
:104B3000F30193FD859193FF81913F01882309F44F
:104B400046C1853239F493FD859193FF81913F01F0
:104B5000853229F4B70190E00E946327E7CF912CBA
:104B6000412C512CFFE1F51538F08B3209F188F416
:104B7000803201F1833221F157FC3AC020ED280F39
:104B80002A3040F556FE1FC0929C200D1124922E13
:104B900006C08D3291F0803379F7689450F8F301B4
:104BA00093FD859193FF81913F018111DBCF20C05F
:104BB000689451F8689452F8F2CF689453F8EFCFA4
:104BC000689454F8ECCF429C200D1124422E689436
:104BD00055F8E5CF8E3229F456FCF9C0689456F8A2
:104BE000DECF8C3619F4689457F8D9CF8836B9F2ED
:104BF000982F9F7D95549330C0F08336A1F1833771
:104C0000C1F1833509F05BC0F801C190D1908F01EB
:104C1000692D70E056FC02C06FEF7FEFC6010E9465
:104C20004D274C01689457F80AC00C5F1F4F2FE3C3
:104C3000298388248394912C6501E89457F853FCC8
:104C400004C04814190409F018F5342C8114910497
:104C500031F5332009F46ACFB70180E290E00E9479
:104C600063273A94F6CFF801808189830E5F1F4F46
:104C7000E0CFF801C190D1908F01692D70E056FC12
:104C800002C06FEF7FEFC6010E9458274C01D5CFBD
:104C9000B70180E290E00E9463274A94D2CFF601E8
:104CA00057FC859157FE81916F01B70190E00E94FA
:104CB000632731103A94F1E08F1A9108C7CF8436F8
:104CC00019F0893609F074C0F80157FE6AC0619185
:104CD0007191819191918F01252D2F76D22E97FF81
:104CE00009C090958095709561957F4F8F4F9F4F2C
:104CF0006894D7F82AE030E0A5010E949327C82ED7
:104D0000CA188C2C5D2CD6FE0CC0E89450F8C9143F
:104D100040F4D4FE05C0D2FC03C0FD2DFE7E5F2E04
:104D2000892C54FE8FC0FE01EC0DF11D8081803373
:104D300009F081C0252D297E522E852D8870382EB0
:104D400053FC8FC050FE89C09C2C841418F44C0C6A
:104D5000942C981854FE8BC0B70180E390E00E9419
:104D6000632752FE09C088E790E051FE02C088E543
:104D700090E0B7010E946327C91408F484C0CA9464
:104D8000D12C9FEFC91AD90ACA0CDB1CF6018291FB
:104D90006F01B70190E00E946327AC14BD04B1F726
:104DA00058CF61917191072E000C880B990B93CF0E
:104DB000D52CE894D4F82AE030E0853739F1952DE8
:104DC000997FD92E8F3601F148F48835A9F0F70183
:104DD000868197812B96E2E10C944F28803749F029
:104DE0008837A9F7D4FE02C06894D2F820E130E0F9
:104DF0000DC06894D4F8F6CF54FE03C0E92FE660E6
:104E0000DE2E20E132E002C028E030E0F801D7FEDB
:104E10000DC061917191819191918F01A5010E94C5
:104E20009327C82ECA18E894D7F86BCF6191719177
:104E300090E080E0F2CF52FC02C083947ECF839456
:104E400083947BCF852D867809F477CFF6CFB70191
:104E500080E290E00E94632783948414C0F3312C95
:104E600079CF342C3818841408F474CFF8CF852DFA
:104E7000867809F481CF8BE251FE80E257FC8DE207
:104E8000B70190E077CFB70180E390E00E946327FD
:104E90009A9472CF8FEF9FEF9DCFFC0105906150E8
:104EA00070400110D8F7809590958E0F9F1F089540
:104EB000FC016150704001900110D8F780959095E9
:104EC0008E0F9F1F08950F931F93CF93DF93182F7B
:104ED000092FEB018B8181FD09C01FEF0FEF812F9F
:104EE000902FDF91CF911F910F91089582FF14C0F1
:104EF0002E813F818C819D81281739073CF4E88100
:104F0000F981CF0101969983888310838E819F81D7
:104F100001969F838E83E3CFE885F985812F0995DC
:104F2000892BA1F3DACFFA01AA27283051F12031D9
:104F300081F1E8946F936E7F6E5F7F4F8F4F9F4F2D
:104F4000AF4FB1E03ED0B4E03CD0670F781F891F6F
:104F50009A1FA11D680F791F8A1F911DA11D6A0F3D
:104F6000711D811D911DA11D20D009F468943F91F0
:104F70002AE0269F11243019305D3193DEF6CF01EF
:104F80000895462F4770405D4193B3E00FD0C9F7B5
:104F9000F6CF462F4F70405D4A3318F0495D31FD22
:104FA0004052419302D0A9F7EACFB4E0A695979575
:104FB000879577956795BA95C9F70097610571054B
:104FC00008959B01AC010A2E069457954795379595
:104FD0002795BA95C9F7620F731F841F951FA01DEF
:104FE0000895F999FECF92BD81BDF89A992780B5B1
:104FF0000895A8E1B0E042E050E00C942528262F67
:10500000F999FECF92BD81BDF89A019700B40216BE
:1050100039F01FBA20BD0FB6F894FA9AF99A0FBE6C
:1050200008950396272F0E9400280E94FF27252F0E
:105030000E940028242F0C9400280196272F0E94FC
:1050400000280C94FF27DC01CB01FC01F999FECF6D
:1050500006C0F2BDE1BDF89A319600B40D92415000
:105060005040B8F708952F923F924F925F926F92FF
:105070007F928F929F92AF92BF92CF92DF92EF92E8
:10508000FF920F931F93CF93DF93CDB7DEB7CA1B69
:10509000DB0B0FB6F894DEBF0FBECDBF09942A8894
:1050A000398848885F846E847D848C849B84AA843C
:1050B000B984C884DF80EE80FD800C811B81AA81C9
:1050C000B981CE0FD11D0FB6F894DEBF0FBECDBF94
:1050D000ED010895F894FFCF57145714AF14AF148F
:1050E00001151D15841484142815B415C315C31592
:1050F0008D168D1696169616981696169616961660
:105100008D168D169D16961696169D16BD23E523B3
:10511000CE24E523CE2418243924CE2490249C24A4
:105120002808641E140A321E0021007F220003AAF0
:1051300002571EB61E951E911E8D1E0125647825F0
:10514000642C206B253264203A2025630020202027
:10515000206162636465666768696A6B6C6D6E6F17
:10516000707172737475767778797A313233343539
:105170003637383930524542542020202020202014
:105180003B27202C2E2F202020E200E900EA00B54A
:1051900000B600B700CD008301CC008A01920194D3
:1051A000012102230224022502260227022A02B339
:1051B00000B4006F007000818283F73133323635DE
:1051C000340008101818100800E200E900EA00B5E1
:1051D00000B600B700CD008301CC008A0192019493
:1051E000012102230224022502260227022A02B3F9
:0A51F00000B4006F0070008182839C
:00000001FF
